{
  "_format": "hh-sol-artifact-1",
  "contractName": "DAOtoken",
  "sourceName": "contracts/DAOtoken.sol",
  "abi": [
    {
      "inputs": [
        {
          "internalType": "string",
          "name": "_name",
          "type": "string"
        },
        {
          "internalType": "string",
          "name": "_symbol",
          "type": "string"
        },
        {
          "internalType": "uint8",
          "name": "_decimals",
          "type": "uint8"
        },
        {
          "internalType": "uint256",
          "name": "_initialSupply",
          "type": "uint256"
        },
        {
          "internalType": "address",
          "name": "_daoContract",
          "type": "address"
        }
      ],
      "stateMutability": "nonpayable",
      "type": "constructor"
    },
    {
      "anonymous": false,
      "inputs": [
        {
          "indexed": true,
          "internalType": "address",
          "name": "owner",
          "type": "address"
        },
        {
          "indexed": true,
          "internalType": "address",
          "name": "spender",
          "type": "address"
        },
        {
          "indexed": false,
          "internalType": "uint256",
          "name": "value",
          "type": "uint256"
        }
      ],
      "name": "Approval",
      "type": "event"
    },
    {
      "anonymous": false,
      "inputs": [
        {
          "indexed": true,
          "internalType": "address",
          "name": "from",
          "type": "address"
        },
        {
          "indexed": true,
          "internalType": "address",
          "name": "to",
          "type": "address"
        },
        {
          "indexed": false,
          "internalType": "uint256",
          "name": "value",
          "type": "uint256"
        }
      ],
      "name": "Transfer",
      "type": "event"
    },
    {
      "inputs": [
        {
          "internalType": "address",
          "name": "",
          "type": "address"
        },
        {
          "internalType": "address",
          "name": "",
          "type": "address"
        }
      ],
      "name": "allowance",
      "outputs": [
        {
          "internalType": "uint256",
          "name": "",
          "type": "uint256"
        }
      ],
      "stateMutability": "view",
      "type": "function"
    },
    {
      "inputs": [
        {
          "internalType": "address",
          "name": "_spender",
          "type": "address"
        },
        {
          "internalType": "uint256",
          "name": "_value",
          "type": "uint256"
        }
      ],
      "name": "approve",
      "outputs": [
        {
          "internalType": "bool",
          "name": "success",
          "type": "bool"
        }
      ],
      "stateMutability": "nonpayable",
      "type": "function"
    },
    {
      "inputs": [
        {
          "internalType": "address",
          "name": "",
          "type": "address"
        }
      ],
      "name": "balanceOf",
      "outputs": [
        {
          "internalType": "uint256",
          "name": "",
          "type": "uint256"
        }
      ],
      "stateMutability": "view",
      "type": "function"
    },
    {
      "inputs": [],
      "name": "daoContract",
      "outputs": [
        {
          "internalType": "address",
          "name": "",
          "type": "address"
        }
      ],
      "stateMutability": "view",
      "type": "function"
    },
    {
      "inputs": [],
      "name": "decimals",
      "outputs": [
        {
          "internalType": "uint8",
          "name": "",
          "type": "uint8"
        }
      ],
      "stateMutability": "view",
      "type": "function"
    },
    {
      "inputs": [],
      "name": "name",
      "outputs": [
        {
          "internalType": "string",
          "name": "",
          "type": "string"
        }
      ],
      "stateMutability": "view",
      "type": "function"
    },
    {
      "inputs": [],
      "name": "symbol",
      "outputs": [
        {
          "internalType": "string",
          "name": "",
          "type": "string"
        }
      ],
      "stateMutability": "view",
      "type": "function"
    },
    {
      "inputs": [],
      "name": "totalSupply",
      "outputs": [
        {
          "internalType": "uint256",
          "name": "",
          "type": "uint256"
        }
      ],
      "stateMutability": "view",
      "type": "function"
    },
    {
      "inputs": [
        {
          "internalType": "address",
          "name": "_to",
          "type": "address"
        },
        {
          "internalType": "uint256",
          "name": "_value",
          "type": "uint256"
        }
      ],
      "name": "transfer",
      "outputs": [
        {
          "internalType": "bool",
          "name": "success",
          "type": "bool"
        }
      ],
      "stateMutability": "nonpayable",
      "type": "function"
    },
    {
      "inputs": [
        {
          "internalType": "address",
          "name": "_from",
          "type": "address"
        },
        {
          "internalType": "address",
          "name": "_to",
          "type": "address"
        },
        {
          "internalType": "uint256",
          "name": "_value",
          "type": "uint256"
        }
      ],
      "name": "transferFrom",
      "outputs": [
        {
          "internalType": "bool",
          "name": "success",
          "type": "bool"
        }
      ],
      "stateMutability": "nonpayable",
      "type": "function"
    },
    {
      "inputs": [
        {
          "internalType": "address",
          "name": "_to",
          "type": "address"
        },
        {
          "internalType": "uint256",
          "name": "_value",
          "type": "uint256"
        }
      ],
      "name": "transferFromDAO",
      "outputs": [
        {
          "internalType": "bool",
          "name": "success",
          "type": "bool"
        }
      ],
      "stateMutability": "nonpayable",
      "type": "function"
    }
  ],
  "bytecode": "0x60806040523480156200001157600080fd5b5060405162000d9c38038062000d9c83398101604081905262000034916200023e565b845162000049906000906020880190620000cb565b5083516200005f906001906020870190620000cb565b506002805460ff191660ff85169081179091556200007f90600a62000403565b6200008b908362000418565b60038190556001600160a01b03909116600081815260056020526040902091909155600480546001600160a01b0319169091179055506200047792505050565b828054620000d9906200043a565b90600052602060002090601f016020900481019282620000fd576000855562000148565b82601f106200011857805160ff191683800117855562000148565b8280016001018555821562000148579182015b82811115620001485782518255916020019190600101906200012b565b50620001569291506200015a565b5090565b5b808211156200015657600081556001016200015b565b634e487b7160e01b600052604160045260246000fd5b600082601f8301126200019957600080fd5b81516001600160401b0380821115620001b657620001b662000171565b604051601f8301601f19908116603f01168101908282118183101715620001e157620001e162000171565b81604052838152602092508683858801011115620001fe57600080fd5b600091505b8382101562000222578582018301518183018401529082019062000203565b83821115620002345760008385830101525b9695505050505050565b600080600080600060a086880312156200025757600080fd5b85516001600160401b03808211156200026f57600080fd5b6200027d89838a0162000187565b965060208801519150808211156200029457600080fd5b50620002a38882890162000187565b945050604086015160ff81168114620002bb57600080fd5b6060870151608088015191945092506001600160a01b0381168114620002e057600080fd5b809150509295509295909350565b634e487b7160e01b600052601160045260246000fd5b600181815b8085111562000345578160001904821115620003295762000329620002ee565b808516156200033757918102915b93841c939080029062000309565b509250929050565b6000826200035e57506001620003fd565b816200036d57506000620003fd565b81600181146200038657600281146200039157620003b1565b6001915050620003fd565b60ff841115620003a557620003a5620002ee565b50506001821b620003fd565b5060208310610133831016604e8410600b8410161715620003d6575081810a620003fd565b620003e2838362000304565b8060001904821115620003f957620003f9620002ee565b0290505b92915050565b60006200041183836200034d565b9392505050565b6000816000190483118215151615620004355762000435620002ee565b500290565b600181811c908216806200044f57607f821691505b602082108114156200047157634e487b7160e01b600052602260045260246000fd5b50919050565b61091580620004876000396000f3fe608060405234801561001057600080fd5b50600436106100a95760003560e01c80634a7ffcbc116100715780634a7ffcbc1461013857806370a082311461016357806395d89b4114610183578063a9059cbb1461018b578063cfdd61941461019e578063dd62ed3e146101b157600080fd5b806306fdde03146100ae578063095ea7b3146100cc57806318160ddd146100ef57806323b872dd14610106578063313ce56714610119575b600080fd5b6100b66101dc565b6040516100c391906106ee565b60405180910390f35b6100df6100da36600461075f565b61026a565b60405190151581526020016100c3565b6100f860035481565b6040519081526020016100c3565b6100df610114366004610789565b6102d6565b6002546101269060ff1681565b60405160ff90911681526020016100c3565b60045461014b906001600160a01b031681565b6040516001600160a01b0390911681526020016100c3565b6100f86101713660046107c5565b60056020526000908152604090205481565b6100b66104c9565b6100df61019936600461075f565b6104d6565b6100df6101ac36600461075f565b6105e7565b6100f86101bf3660046107e7565b600660209081526000928352604080842090915290825290205481565b600080546101e99061081a565b80601f01602080910402602001604051908101604052809291908181526020018280546102159061081a565b80156102625780601f1061023757610100808354040283529160200191610262565b820191906000526020600020905b81548152906001019060200180831161024557829003601f168201915b505050505081565b3360008181526006602090815260408083206001600160a01b038716808552925280832085905551919290917f8c5be1e5ebec7d5bd14f71427d1e84f3dd0314c0f7b2291e5b200ac8c7c3b925906102c59086815260200190565b60405180910390a350600192915050565b6004546000906001600160a01b0316331461030c5760405162461bcd60e51b815260040161030390610855565b60405180910390fd5b6001600160a01b03841660009081526005602052604090205482111561036b5760405162461bcd60e51b8152602060048201526014602482015273496e73756666696369656e742062616c616e636560601b6044820152606401610303565b6001600160a01b03841660009081526006602090815260408083203384529091529020548211156103de5760405162461bcd60e51b815260206004820181905260248201527f4e6f7420616c6c6f77656420746f207370656e64207468697320616d6f756e746044820152606401610303565b6001600160a01b038416600090815260056020526040812080548492906104069084906108b0565b90915550506001600160a01b038316600090815260056020526040812080548492906104339084906108c7565b90915550506001600160a01b03841660009081526006602090815260408083203384529091528120805484929061046b9084906108b0565b92505081905550826001600160a01b0316846001600160a01b03167fddf252ad1be2c89b69c2b068fc378daa952ba7f163c4a11628f55a4df523b3ef846040516104b791815260200190565b60405180910390a35060019392505050565b600180546101e99061081a565b6004546000906001600160a01b031633146105035760405162461bcd60e51b815260040161030390610855565b336000908152600560205260409020548211156105595760405162461bcd60e51b8152602060048201526014602482015273496e73756666696369656e742062616c616e636560601b6044820152606401610303565b33600090815260056020526040812080548492906105789084906108b0565b90915550506001600160a01b038316600090815260056020526040812080548492906105a59084906108c7565b90915550506040518281526001600160a01b0384169033907fddf252ad1be2c89b69c2b068fc378daa952ba7f163c4a11628f55a4df523b3ef906020016102c5565b6004546001600160a01b03166000908152600560205260408120548211156106515760405162461bcd60e51b815260206004820152601860248201527f496e73756666696369656e742044414f2062616c616e636500000000000000006044820152606401610303565b6004546001600160a01b03166000908152600560205260408120805484929061067b9084906108b0565b90915550506001600160a01b038316600090815260056020526040812080548492906106a89084906108c7565b90915550506004546040518381526001600160a01b038581169216907fddf252ad1be2c89b69c2b068fc378daa952ba7f163c4a11628f55a4df523b3ef906020016102c5565b600060208083528351808285015260005b8181101561071b578581018301518582016040015282016106ff565b8181111561072d576000604083870101525b50601f01601f1916929092016040019392505050565b80356001600160a01b038116811461075a57600080fd5b919050565b6000806040838503121561077257600080fd5b61077b83610743565b946020939093013593505050565b60008060006060848603121561079e57600080fd5b6107a784610743565b92506107b560208501610743565b9150604084013590509250925092565b6000602082840312156107d757600080fd5b6107e082610743565b9392505050565b600080604083850312156107fa57600080fd5b61080383610743565b915061081160208401610743565b90509250929050565b600181811c9082168061082e57607f821691505b6020821081141561084f57634e487b7160e01b600052602260045260246000fd5b50919050565b60208082526025908201527f4f6e6c792044414f20636f6e74726163742063616e207472616e7366657220746040820152646f6b656e7360d81b606082015260800190565b634e487b7160e01b600052601160045260246000fd5b6000828210156108c2576108c261089a565b500390565b600082198211156108da576108da61089a565b50019056fea26469706673582212209d6b3115826af5afd451c99fb552db8aa418e61b336fb54dca964ab48613e4cc64736f6c63430008090033",
  "linkReferences": {},
  "deployedLinkReferences": {}
}