{
  "_format": "hh-sol-artifact-1",
  "contractName": "DAO",
  "sourceName": "contracts/DAO.sol",
  "abi": [
    {
      "anonymous": false,
      "inputs": [
        {
          "indexed": false,
          "internalType": "uint256",
          "name": "proposalId",
          "type": "uint256"
        }
      ],
      "name": "ProposalClosed",
      "type": "event"
    },
    {
      "anonymous": false,
      "inputs": [
        {
          "indexed": false,
          "internalType": "uint256",
          "name": "id",
          "type": "uint256"
        },
        {
          "indexed": false,
          "internalType": "string",
          "name": "title",
          "type": "string"
        }
      ],
      "name": "ProposalCreated",
      "type": "event"
    },
    {
      "anonymous": false,
      "inputs": [
        {
          "indexed": false,
          "internalType": "uint256",
          "name": "proposalId",
          "type": "uint256"
        },
        {
          "indexed": false,
          "internalType": "string",
          "name": "winningOption",
          "type": "string"
        }
      ],
      "name": "ProposalFinished",
      "type": "event"
    },
    {
      "anonymous": false,
      "inputs": [
        {
          "indexed": false,
          "internalType": "uint256",
          "name": "proposalId",
          "type": "uint256"
        },
        {
          "indexed": false,
          "internalType": "address",
          "name": "voter",
          "type": "address"
        },
        {
          "indexed": false,
          "internalType": "uint256",
          "name": "voteOption",
          "type": "uint256"
        }
      ],
      "name": "VoteSubmitted",
      "type": "event"
    },
    {
      "inputs": [
        {
          "internalType": "string",
          "name": "title",
          "type": "string"
        },
        {
          "internalType": "string",
          "name": "description",
          "type": "string"
        },
        {
          "internalType": "uint256",
          "name": "deadline",
          "type": "uint256"
        },
        {
          "internalType": "uint256",
          "name": "minimumVotes",
          "type": "uint256"
        }
      ],
      "name": "createProposal",
      "outputs": [],
      "stateMutability": "nonpayable",
      "type": "function"
    },
    {
      "inputs": [],
      "name": "daoToken",
      "outputs": [
        {
          "internalType": "contract DAOtoken",
          "name": "",
          "type": "address"
        }
      ],
      "stateMutability": "view",
      "type": "function"
    },
    {
      "inputs": [
        {
          "internalType": "uint256",
          "name": "",
          "type": "uint256"
        },
        {
          "internalType": "address",
          "name": "",
          "type": "address"
        }
      ],
      "name": "hasVoted",
      "outputs": [
        {
          "internalType": "bool",
          "name": "",
          "type": "bool"
        }
      ],
      "stateMutability": "view",
      "type": "function"
    },
    {
      "inputs": [
        {
          "internalType": "address",
          "name": "memberAddress",
          "type": "address"
        }
      ],
      "name": "isMember",
      "outputs": [
        {
          "internalType": "bool",
          "name": "",
          "type": "bool"
        }
      ],
      "stateMutability": "view",
      "type": "function"
    },
    {
      "inputs": [],
      "name": "joinDAO",
      "outputs": [],
      "stateMutability": "nonpayable",
      "type": "function"
    },
    {
      "inputs": [
        {
          "internalType": "address",
          "name": "",
          "type": "address"
        }
      ],
      "name": "memberBalances",
      "outputs": [
        {
          "internalType": "uint256",
          "name": "",
          "type": "uint256"
        }
      ],
      "stateMutability": "view",
      "type": "function"
    },
    {
      "inputs": [
        {
          "internalType": "address",
          "name": "",
          "type": "address"
        }
      ],
      "name": "members",
      "outputs": [
        {
          "internalType": "bool",
          "name": "",
          "type": "bool"
        }
      ],
      "stateMutability": "view",
      "type": "function"
    },
    {
      "inputs": [
        {
          "internalType": "uint256",
          "name": "",
          "type": "uint256"
        }
      ],
      "name": "proposals",
      "outputs": [
        {
          "internalType": "uint256",
          "name": "id",
          "type": "uint256"
        },
        {
          "internalType": "string",
          "name": "title",
          "type": "string"
        },
        {
          "internalType": "string",
          "name": "description",
          "type": "string"
        },
        {
          "internalType": "uint256",
          "name": "deadline",
          "type": "uint256"
        },
        {
          "internalType": "uint256",
          "name": "minimumVotes",
          "type": "uint256"
        },
        {
          "internalType": "uint256",
          "name": "votesForA",
          "type": "uint256"
        },
        {
          "internalType": "uint256",
          "name": "votesForB",
          "type": "uint256"
        },
        {
          "internalType": "bool",
          "name": "isClosed",
          "type": "bool"
        },
        {
          "internalType": "bool",
          "name": "finished",
          "type": "bool"
        }
      ],
      "stateMutability": "view",
      "type": "function"
    },
    {
      "inputs": [],
      "name": "proposalsCount",
      "outputs": [
        {
          "internalType": "uint256",
          "name": "",
          "type": "uint256"
        }
      ],
      "stateMutability": "view",
      "type": "function"
    },
    {
      "inputs": [],
      "name": "proposalsStatus",
      "outputs": [],
      "stateMutability": "nonpayable",
      "type": "function"
    },
    {
      "inputs": [
        {
          "internalType": "address",
          "name": "tokenAddress",
          "type": "address"
        }
      ],
      "name": "setDAOtoken",
      "outputs": [],
      "stateMutability": "nonpayable",
      "type": "function"
    },
    {
      "inputs": [
        {
          "internalType": "uint256",
          "name": "proposalId",
          "type": "uint256"
        },
        {
          "internalType": "uint256",
          "name": "voteOption",
          "type": "uint256"
        }
      ],
      "name": "vote",
      "outputs": [],
      "stateMutability": "nonpayable",
      "type": "function"
    }
  ],
  "bytecode": "0x608060405234801561001057600080fd5b50610f74806100206000396000f3fe608060405234801561001057600080fd5b50600436106100b45760003560e01c80636b5e1766116100715780636b5e17661461019d5780638d516555146101b0578063a230c524146101b8578063b384abef146101e4578063eca615ab146101f7578063f63d13d71461021757600080fd5b8063013cf08b146100b957806308ae4b0c146100ea5780630a9f46ad1461011d5780632cb4fdd51461012f57806343859632146101445780634914b03014610172575b600080fd5b6100cc6100c7366004610c11565b61021f565b6040516100e199989796959493929190610c77565b60405180910390f35b61010d6100f8366004610cfa565b60016020526000908152604090205460ff1681565b60405190151581526020016100e1565b6002545b6040519081526020016100e1565b61014261013d366004610cfa565b610390565b005b61010d610152366004610d1c565b600460209081526000928352604080842090915290825290205460ff1681565b600054610185906001600160a01b031681565b6040516001600160a01b0390911681526020016100e1565b6101426101ab366004610deb565b610407565b61014261057a565b61010d6101c6366004610cfa565b6001600160a01b031660009081526001602052604090205460ff1690565b6101426101f2366004610e5f565b610639565b610121610205366004610cfa565b60036020526000908152604090205481565b610142610896565b6002818154811061022f57600080fd5b6000918252602090912060089091020180546001820180549193509061025490610e81565b80601f016020809104026020016040519081016040528092919081815260200182805461028090610e81565b80156102cd5780601f106102a2576101008083540402835291602001916102cd565b820191906000526020600020905b8154815290600101906020018083116102b057829003601f168201915b5050505050908060020180546102e290610e81565b80601f016020809104026020016040519081016040528092919081815260200182805461030e90610e81565b801561035b5780601f106103305761010080835404028352916020019161035b565b820191906000526020600020905b81548152906001019060200180831161033e57829003601f168201915b505050600384015460048501546005860154600687015460079097015495969295919450925060ff8082169161010090041689565b6000546001600160a01b0316156103e55760405162461bcd60e51b8152602060048201526014602482015273111053dd1bdad95b88185b1c9958591e481cd95d60621b60448201526064015b60405180910390fd5b600080546001600160a01b0319166001600160a01b0392909216919091179055565b60028054604080516101208101825282815260208082018981529282018890526060820187905260808201869052600060a0830181905260c0830181905260e083018190526101008301819052600185018655949094528051600884027f405787fa12a823e0f2b7631cc41b3ba8828b3321ca811111fa75cd3aa3bb5ace81019182559251805194959294859492936104c4937f405787fa12a823e0f2b7631cc41b3ba8828b3321ca811111fa75cd3aa3bb5acf01920190610b78565b50604082015180516104e0916002840191602090910190610b78565b50606082015160038201556080820151600482015560a0820151600582015560c0820151600682015560e0820151600790910180546101009384015161ffff1990911692151561ff001916929092179115159092021790556040517f9c770c289ab5bf7e57cb1d23c8ceae993aea46eb64847072fd3d78ca60d3e4329061056a9084908990610ebc565b60405180910390a1505050505050565b60005b6002548110156106365760006002828154811061059c5761059c610edd565b60009182526020909120600890910201600781015490915060ff161580156105c8575080600301544210155b156106235760078101805460ff1916600117905580546040517f887777ccf43690541bed9e00b10d0fccfa7520b11875f09847a57b3085d8ab92916106109190815260200190565b60405180910390a18054610623906109de565b508061062e81610ef3565b91505061057d565b50565b60006002838154811061064e5761064e610edd565b90600052602060002090600802019050806003015442106106bb5760078101805460ff191660011790556040517f887777ccf43690541bed9e00b10d0fccfa7520b11875f09847a57b3085d8ab92906106aa9085815260200190565b60405180910390a16106bb836109de565b600781015460ff16156107055760405162461bcd60e51b8152602060048201526012602482015271141c9bdc1bdcd85b081a5cc818db1bdcd95960721b60448201526064016103dc565b6007810154610100900460ff16156107565760405162461bcd60e51b8152602060048201526014602482015273141c9bdc1bdcd85b081a5cc8199a5b9a5cda195960621b60448201526064016103dc565b600083815260046020908152604080832033845290915290205460ff16156107b05760405162461bcd60e51b815260206004820152600d60248201526c105b1c9958591e481d9bdd1959609a1b60448201526064016103dc565b816107d1576005810180549060006107c783610ef3565b919050555061082a565b81600114156107ec576006810180549060006107c783610ef3565b60405162461bcd60e51b815260206004820152601360248201527224b73b30b634b2103b37ba329037b83a34b7b760691b60448201526064016103dc565b60008381526004602090815260408083203380855290835292819020805460ff191660011790558051868152918201929092529081018390527fa5876137634fc61be6a6224d5f4a2d0926145388c51a133c03cc00f7b66e0e3c906060015b60405180910390a1505050565b3360009081526001602052604090205460ff16156108e95760405162461bcd60e51b815260206004820152601060248201526f20b63932b0b23c90309036b2b6b132b960811b60448201526064016103dc565b6000546040516333f7586560e21b8152336004820152606460248201819052916001600160a01b03169063cfdd619490604401602060405180830381600087803b15801561093657600080fd5b505af115801561094a573d6000803e3d6000fd5b505050506040513d601f19601f8201168201806040525081019061096e9190610f1c565b6109b25760405162461bcd60e51b8152602060048201526015602482015274151bdad95b881d1c985b9cd9995c8819985a5b1959605a1b60448201526064016103dc565b33600090815260036020908152604080832093909355600190819052919020805460ff19169091179055565b6000600282815481106109f3576109f3610edd565b60009182526020909120600890910201600781015490915060ff16610a535760405162461bcd60e51b8152602060048201526016602482015275141c9bdc1bdcd85b081a5cc81b9bdd0818db1bdcd95960521b60448201526064016103dc565b6007810154610100900460ff1615610aad5760405162461bcd60e51b815260206004820152601c60248201527f50726f706f73616c20697320616c72656164792066696e69736865640000000060448201526064016103dc565b60078101805461ff001916610100179055600681015460058201546060911015610af657506040805180820190915260088152674f7074696f6e204160c01b6020820152610b47565b816005015482600601541115610b2b575060408051808201909152600881526727b83a34b7b7102160c11b6020820152610b47565b5060408051808201909152600381526254696560e81b60208201525b7fd55108dbacbe794e21abc5b4434e49f44c6824e10f71c59a956f6e09ff1c643e8382604051610889929190610ebc565b828054610b8490610e81565b90600052602060002090601f016020900481019282610ba65760008555610bec565b82601f10610bbf57805160ff1916838001178555610bec565b82800160010185558215610bec579182015b82811115610bec578251825591602001919060010190610bd1565b50610bf8929150610bfc565b5090565b5b80821115610bf85760008155600101610bfd565b600060208284031215610c2357600080fd5b5035919050565b6000815180845260005b81811015610c5057602081850181015186830182015201610c34565b81811115610c62576000602083870101525b50601f01601f19169290920160200192915050565b60006101208b8352806020840152610c918184018c610c2a565b90508281036040840152610ca5818b610c2a565b60608401999099525050608081019590955260a085019390935260c0840191909152151560e08301521515610100909101529392505050565b80356001600160a01b0381168114610cf557600080fd5b919050565b600060208284031215610d0c57600080fd5b610d1582610cde565b9392505050565b60008060408385031215610d2f57600080fd5b82359150610d3f60208401610cde565b90509250929050565b634e487b7160e01b600052604160045260246000fd5b600082601f830112610d6f57600080fd5b813567ffffffffffffffff80821115610d8a57610d8a610d48565b604051601f8301601f19908116603f01168101908282118183101715610db257610db2610d48565b81604052838152866020858801011115610dcb57600080fd5b836020870160208301376000602085830101528094505050505092915050565b60008060008060808587031215610e0157600080fd5b843567ffffffffffffffff80821115610e1957600080fd5b610e2588838901610d5e565b95506020870135915080821115610e3b57600080fd5b50610e4887828801610d5e565b949794965050505060408301359260600135919050565b60008060408385031215610e7257600080fd5b50508035926020909101359150565b600181811c90821680610e9557607f821691505b60208210811415610eb657634e487b7160e01b600052602260045260246000fd5b50919050565b828152604060208201526000610ed56040830184610c2a565b949350505050565b634e487b7160e01b600052603260045260246000fd5b6000600019821415610f1557634e487b7160e01b600052601160045260246000fd5b5060010190565b600060208284031215610f2e57600080fd5b81518015158114610d1557600080fdfea26469706673582212208d933fd630edcb693c448f7e046ca9b0280e0d039a18b41af0c11f4aec2a1e1d64736f6c63430008090033",
  "linkReferences": {},
  "deployedLinkReferences": {}
}