{
  "_format": "hh-sol-artifact-1",
  "contractName": "DAO",
  "sourceName": "contracts/DAO.sol",
  "abi": [
    {
      "anonymous": false,
      "inputs": [
        {
          "indexed": false,
          "internalType": "uint256",
          "name": "proposalId",
          "type": "uint256"
        }
      ],
      "name": "ProposalClosed",
      "type": "event"
    },
    {
      "anonymous": false,
      "inputs": [
        {
          "indexed": false,
          "internalType": "uint256",
          "name": "id",
          "type": "uint256"
        },
        {
          "indexed": false,
          "internalType": "string",
          "name": "title",
          "type": "string"
        }
      ],
      "name": "ProposalCreated",
      "type": "event"
    },
    {
      "anonymous": false,
      "inputs": [
        {
          "indexed": false,
          "internalType": "uint256",
          "name": "proposalId",
          "type": "uint256"
        },
        {
          "indexed": false,
          "internalType": "string",
          "name": "winningOption",
          "type": "string"
        }
      ],
      "name": "ProposalFinished",
      "type": "event"
    },
    {
      "anonymous": false,
      "inputs": [
        {
          "indexed": false,
          "internalType": "uint256",
          "name": "proposalId",
          "type": "uint256"
        },
        {
          "indexed": false,
          "internalType": "address",
          "name": "voter",
          "type": "address"
        },
        {
          "indexed": false,
          "internalType": "uint256",
          "name": "voteOption",
          "type": "uint256"
        }
      ],
      "name": "VoteSubmitted",
      "type": "event"
    },
    {
      "inputs": [
        {
          "internalType": "string",
          "name": "title",
          "type": "string"
        },
        {
          "internalType": "string",
          "name": "description",
          "type": "string"
        },
        {
          "internalType": "uint256",
          "name": "deadline",
          "type": "uint256"
        },
        {
          "internalType": "uint256",
          "name": "minimumVotes",
          "type": "uint256"
        }
      ],
      "name": "createProposal",
      "outputs": [],
      "stateMutability": "nonpayable",
      "type": "function"
    },
    {
      "inputs": [
        {
          "internalType": "uint256",
          "name": "",
          "type": "uint256"
        },
        {
          "internalType": "address",
          "name": "",
          "type": "address"
        }
      ],
      "name": "hasVoted",
      "outputs": [
        {
          "internalType": "bool",
          "name": "",
          "type": "bool"
        }
      ],
      "stateMutability": "view",
      "type": "function"
    },
    {
      "inputs": [
        {
          "internalType": "uint256",
          "name": "",
          "type": "uint256"
        }
      ],
      "name": "proposals",
      "outputs": [
        {
          "internalType": "uint256",
          "name": "id",
          "type": "uint256"
        },
        {
          "internalType": "string",
          "name": "title",
          "type": "string"
        },
        {
          "internalType": "string",
          "name": "description",
          "type": "string"
        },
        {
          "internalType": "uint256",
          "name": "deadline",
          "type": "uint256"
        },
        {
          "internalType": "uint256",
          "name": "minimumVotes",
          "type": "uint256"
        },
        {
          "internalType": "uint256",
          "name": "votesForA",
          "type": "uint256"
        },
        {
          "internalType": "uint256",
          "name": "votesForB",
          "type": "uint256"
        },
        {
          "internalType": "bool",
          "name": "isClosed",
          "type": "bool"
        },
        {
          "internalType": "bool",
          "name": "finished",
          "type": "bool"
        }
      ],
      "stateMutability": "view",
      "type": "function"
    },
    {
      "inputs": [],
      "name": "proposalsCount",
      "outputs": [
        {
          "internalType": "uint256",
          "name": "",
          "type": "uint256"
        }
      ],
      "stateMutability": "view",
      "type": "function"
    },
    {
      "inputs": [],
      "name": "proposalsStatus",
      "outputs": [],
      "stateMutability": "nonpayable",
      "type": "function"
    },
    {
      "inputs": [
        {
          "internalType": "uint256",
          "name": "proposalId",
          "type": "uint256"
        },
        {
          "internalType": "uint256",
          "name": "voteOption",
          "type": "uint256"
        }
      ],
      "name": "vote",
      "outputs": [],
      "stateMutability": "nonpayable",
      "type": "function"
    }
  ],
  "bytecode": "0x608060405234801561001057600080fd5b50610c5c806100206000396000f3fe608060405234801561001057600080fd5b50600436106100625760003560e01c8063013cf08b146100675780630a9f46ad1461009857806343859632146100a95780636b5e1766146100e75780638d516555146100fc578063b384abef14610104575b600080fd5b61007a610075366004610949565b610117565b60405161008f999897969594939291906109af565b60405180910390f35b60005460405190815260200161008f565b6100d76100b7366004610a16565b600160209081526000928352604080842090915290825290205460ff1681565b604051901515815260200161008f565b6100fa6100f5366004610af5565b610288565b005b6100fa6103f8565b6100fa610112366004610b69565b6104b6565b6000818154811061012757600080fd5b6000918252602090912060089091020180546001820180549193509061014c90610b8b565b80601f016020809104026020016040519081016040528092919081815260200182805461017890610b8b565b80156101c55780601f1061019a576101008083540402835291602001916101c5565b820191906000526020600020905b8154815290600101906020018083116101a857829003601f168201915b5050505050908060020180546101da90610b8b565b80601f016020809104026020016040519081016040528092919081815260200182805461020690610b8b565b80156102535780601f1061022857610100808354040283529160200191610253565b820191906000526020600020905b81548152906001019060200180831161023657829003601f168201915b505050600384015460048501546005860154600687015460079097015495969295919450925060ff8082169161010090041689565b6000805460408051610120810182528281526020808201898152928201889052606082018790526080820186905260a0820185905260c0820185905260e0820185905261010082018590526001840185559380528051600884027f290decd9548b62a8d60345a988386fc84ba6bc95484008f6362f93160ef3e5638101918255925180519495929485949293610342937f290decd9548b62a8d60345a988386fc84ba6bc95484008f6362f93160ef3e564019201906108b0565b506040820151805161035e9160028401916020909101906108b0565b50606082015160038201556080820151600482015560a0820151600582015560c0820151600682015560e0820151600790910180546101009384015161ffff1990911692151561ff001916929092179115159092021790556040517f9c770c289ab5bf7e57cb1d23c8ceae993aea46eb64847072fd3d78ca60d3e432906103e89084908990610bc6565b60405180910390a1505050505050565b60005b6000548110156104b357600080828154811061041957610419610be7565b60009182526020909120600890910201600781015490915060ff16158015610445575080600301544210155b156104a05760078101805460ff1916600117905580546040517f887777ccf43690541bed9e00b10d0fccfa7520b11875f09847a57b3085d8ab929161048d9190815260200190565b60405180910390a180546104a090610717565b50806104ab81610bfd565b9150506103fb565b50565b60008083815481106104ca576104ca610be7565b90600052602060002090600802019050806003015442106105375760078101805460ff191660011790556040517f887777ccf43690541bed9e00b10d0fccfa7520b11875f09847a57b3085d8ab92906105269085815260200190565b60405180910390a161053783610717565b600781015460ff16156105865760405162461bcd60e51b8152602060048201526012602482015271141c9bdc1bdcd85b081a5cc818db1bdcd95960721b60448201526064015b60405180910390fd5b6007810154610100900460ff16156105d75760405162461bcd60e51b8152602060048201526014602482015273141c9bdc1bdcd85b081a5cc8199a5b9a5cda195960621b604482015260640161057d565b600083815260016020908152604080832033845290915290205460ff16156106315760405162461bcd60e51b815260206004820152600d60248201526c105b1c9958591e481d9bdd1959609a1b604482015260640161057d565b816106525760058101805490600061064883610bfd565b91905055506106ab565b816001141561066d5760068101805490600061064883610bfd565b60405162461bcd60e51b815260206004820152601360248201527224b73b30b634b2103b37ba329037b83a34b7b760691b604482015260640161057d565b60008381526001602081815260408084203380865290835293819020805460ff191690931790925581518681529081019290925281018390527fa5876137634fc61be6a6224d5f4a2d0926145388c51a133c03cc00f7b66e0e3c906060015b60405180910390a1505050565b600080828154811061072b5761072b610be7565b60009182526020909120600890910201600781015490915060ff1661078b5760405162461bcd60e51b8152602060048201526016602482015275141c9bdc1bdcd85b081a5cc81b9bdd0818db1bdcd95960521b604482015260640161057d565b6007810154610100900460ff16156107e55760405162461bcd60e51b815260206004820152601c60248201527f50726f706f73616c20697320616c72656164792066696e697368656400000000604482015260640161057d565b60078101805461ff00191661010017905560068101546005820154606091101561082e57506040805180820190915260088152674f7074696f6e204160c01b602082015261087f565b816005015482600601541115610863575060408051808201909152600881526727b83a34b7b7102160c11b602082015261087f565b5060408051808201909152600381526254696560e81b60208201525b7fd55108dbacbe794e21abc5b4434e49f44c6824e10f71c59a956f6e09ff1c643e838260405161070a929190610bc6565b8280546108bc90610b8b565b90600052602060002090601f0160209004810192826108de5760008555610924565b82601f106108f757805160ff1916838001178555610924565b82800160010185558215610924579182015b82811115610924578251825591602001919060010190610909565b50610930929150610934565b5090565b5b808211156109305760008155600101610935565b60006020828403121561095b57600080fd5b5035919050565b6000815180845260005b818110156109885760208185018101518683018201520161096c565b8181111561099a576000602083870101525b50601f01601f19169290920160200192915050565b60006101208b83528060208401526109c98184018c610962565b905082810360408401526109dd818b610962565b60608401999099525050608081019590955260a085019390935260c0840191909152151560e08301521515610100909101529392505050565b60008060408385031215610a2957600080fd5b8235915060208301356001600160a01b0381168114610a4757600080fd5b809150509250929050565b634e487b7160e01b600052604160045260246000fd5b600082601f830112610a7957600080fd5b813567ffffffffffffffff80821115610a9457610a94610a52565b604051601f8301601f19908116603f01168101908282118183101715610abc57610abc610a52565b81604052838152866020858801011115610ad557600080fd5b836020870160208301376000602085830101528094505050505092915050565b60008060008060808587031215610b0b57600080fd5b843567ffffffffffffffff80821115610b2357600080fd5b610b2f88838901610a68565b95506020870135915080821115610b4557600080fd5b50610b5287828801610a68565b949794965050505060408301359260600135919050565b60008060408385031215610b7c57600080fd5b50508035926020909101359150565b600181811c90821680610b9f57607f821691505b60208210811415610bc057634e487b7160e01b600052602260045260246000fd5b50919050565b828152604060208201526000610bdf6040830184610962565b949350505050565b634e487b7160e01b600052603260045260246000fd5b6000600019821415610c1f57634e487b7160e01b600052601160045260246000fd5b506001019056fea2646970667358221220572c9694c0389df5528b97de4714c6977cde7c4ac56294f5712c015940f3a82764736f6c63430008090033",
  "linkReferences": {},
  "deployedLinkReferences": {}
}