{
  "_format": "hh-sol-artifact-1",
  "contractName": "DAO",
  "sourceName": "contracts/DAO.sol",
  "abi": [
    {
      "anonymous": false,
      "inputs": [
        {
          "indexed": false,
          "internalType": "uint256",
          "name": "proposalId",
          "type": "uint256"
        }
      ],
      "name": "ProposalClosed",
      "type": "event"
    },
    {
      "anonymous": false,
      "inputs": [
        {
          "indexed": false,
          "internalType": "uint256",
          "name": "id",
          "type": "uint256"
        },
        {
          "indexed": false,
          "internalType": "string",
          "name": "title",
          "type": "string"
        }
      ],
      "name": "ProposalCreated",
      "type": "event"
    },
    {
      "anonymous": false,
      "inputs": [
        {
          "indexed": false,
          "internalType": "uint256",
          "name": "proposalId",
          "type": "uint256"
        },
        {
          "indexed": false,
          "internalType": "string",
          "name": "winningOption",
          "type": "string"
        }
      ],
      "name": "ProposalFinished",
      "type": "event"
    },
    {
      "anonymous": false,
      "inputs": [
        {
          "indexed": false,
          "internalType": "uint256",
          "name": "proposalId",
          "type": "uint256"
        },
        {
          "indexed": false,
          "internalType": "address",
          "name": "voter",
          "type": "address"
        },
        {
          "indexed": false,
          "internalType": "uint256",
          "name": "voteOption",
          "type": "uint256"
        }
      ],
      "name": "VoteSubmitted",
      "type": "event"
    },
    {
      "inputs": [
        {
          "internalType": "string",
          "name": "title",
          "type": "string"
        },
        {
          "internalType": "string",
          "name": "description",
          "type": "string"
        },
        {
          "internalType": "uint256",
          "name": "deadline",
          "type": "uint256"
        },
        {
          "internalType": "uint256",
          "name": "minimumVotes",
          "type": "uint256"
        }
      ],
      "name": "createProposal",
      "outputs": [],
      "stateMutability": "nonpayable",
      "type": "function"
    },
    {
      "inputs": [
        {
          "internalType": "uint256",
          "name": "",
          "type": "uint256"
        },
        {
          "internalType": "address",
          "name": "",
          "type": "address"
        }
      ],
      "name": "hasVoted",
      "outputs": [
        {
          "internalType": "bool",
          "name": "",
          "type": "bool"
        }
      ],
      "stateMutability": "view",
      "type": "function"
    },
    {
      "inputs": [
        {
          "internalType": "uint256",
          "name": "",
          "type": "uint256"
        }
      ],
      "name": "proposals",
      "outputs": [
        {
          "internalType": "uint256",
          "name": "id",
          "type": "uint256"
        },
        {
          "internalType": "string",
          "name": "title",
          "type": "string"
        },
        {
          "internalType": "string",
          "name": "description",
          "type": "string"
        },
        {
          "internalType": "uint256",
          "name": "deadline",
          "type": "uint256"
        },
        {
          "internalType": "uint256",
          "name": "minimumVotes",
          "type": "uint256"
        },
        {
          "internalType": "uint256",
          "name": "votesForA",
          "type": "uint256"
        },
        {
          "internalType": "uint256",
          "name": "votesForB",
          "type": "uint256"
        },
        {
          "internalType": "bool",
          "name": "isClosed",
          "type": "bool"
        },
        {
          "internalType": "bool",
          "name": "finished",
          "type": "bool"
        }
      ],
      "stateMutability": "view",
      "type": "function"
    },
    {
      "inputs": [],
      "name": "proposalsCount",
      "outputs": [
        {
          "internalType": "uint256",
          "name": "",
          "type": "uint256"
        }
      ],
      "stateMutability": "view",
      "type": "function"
    },
    {
      "inputs": [
        {
          "internalType": "uint256",
          "name": "proposalId",
          "type": "uint256"
        },
        {
          "internalType": "uint256",
          "name": "voteOption",
          "type": "uint256"
        }
      ],
      "name": "vote",
      "outputs": [],
      "stateMutability": "nonpayable",
      "type": "function"
    }
  ],
  "bytecode": "0x608060405234801561001057600080fd5b50610b8b806100206000396000f3fe608060405234801561001057600080fd5b50600436106100575760003560e01c8063013cf08b1461005c5780630a9f46ad1461008d578063438596321461009e5780636b5e1766146100dc578063b384abef146100f1575b600080fd5b61006f61006a366004610878565b610104565b604051610084999897969594939291906108de565b60405180910390f35b600054604051908152602001610084565b6100cc6100ac366004610945565b600160209081526000928352604080842090915290825290205460ff1681565b6040519015158152602001610084565b6100ef6100ea366004610a24565b610275565b005b6100ef6100ff366004610a98565b6103e5565b6000818154811061011457600080fd5b6000918252602090912060089091020180546001820180549193509061013990610aba565b80601f016020809104026020016040519081016040528092919081815260200182805461016590610aba565b80156101b25780601f10610187576101008083540402835291602001916101b2565b820191906000526020600020905b81548152906001019060200180831161019557829003601f168201915b5050505050908060020180546101c790610aba565b80601f01602080910402602001604051908101604052809291908181526020018280546101f390610aba565b80156102405780601f1061021557610100808354040283529160200191610240565b820191906000526020600020905b81548152906001019060200180831161022357829003601f168201915b505050600384015460048501546005860154600687015460079097015495969295919450925060ff8082169161010090041689565b6000805460408051610120810182528281526020808201898152928201889052606082018790526080820186905260a0820185905260c0820185905260e0820185905261010082018590526001840185559380528051600884027f290decd9548b62a8d60345a988386fc84ba6bc95484008f6362f93160ef3e563810191825592518051949592948594929361032f937f290decd9548b62a8d60345a988386fc84ba6bc95484008f6362f93160ef3e564019201906107df565b506040820151805161034b9160028401916020909101906107df565b50606082015160038201556080820151600482015560a0820151600582015560c0820151600682015560e0820151600790910180546101009384015161ffff1990911692151561ff001916929092179115159092021790556040517f9c770c289ab5bf7e57cb1d23c8ceae993aea46eb64847072fd3d78ca60d3e432906103d59084908990610af5565b60405180910390a1505050505050565b60008083815481106103f9576103f9610b16565b90600052602060002090600802019050806003015442106104665760078101805460ff191660011790556040517f887777ccf43690541bed9e00b10d0fccfa7520b11875f09847a57b3085d8ab92906104559085815260200190565b60405180910390a161046683610646565b600781015460ff16156104b55760405162461bcd60e51b8152602060048201526012602482015271141c9bdc1bdcd85b081a5cc818db1bdcd95960721b60448201526064015b60405180910390fd5b6007810154610100900460ff16156105065760405162461bcd60e51b8152602060048201526014602482015273141c9bdc1bdcd85b081a5cc8199a5b9a5cda195960621b60448201526064016104ac565b600083815260016020908152604080832033845290915290205460ff16156105605760405162461bcd60e51b815260206004820152600d60248201526c105b1c9958591e481d9bdd1959609a1b60448201526064016104ac565b816105815760058101805490600061057783610b2c565b91905055506105da565b816001141561059c5760068101805490600061057783610b2c565b60405162461bcd60e51b815260206004820152601360248201527224b73b30b634b2103b37ba329037b83a34b7b760691b60448201526064016104ac565b60008381526001602081815260408084203380865290835293819020805460ff191690931790925581518681529081019290925281018390527fa5876137634fc61be6a6224d5f4a2d0926145388c51a133c03cc00f7b66e0e3c906060015b60405180910390a1505050565b600080828154811061065a5761065a610b16565b60009182526020909120600890910201600781015490915060ff166106ba5760405162461bcd60e51b8152602060048201526016602482015275141c9bdc1bdcd85b081a5cc81b9bdd0818db1bdcd95960521b60448201526064016104ac565b6007810154610100900460ff16156107145760405162461bcd60e51b815260206004820152601c60248201527f50726f706f73616c20697320616c72656164792066696e69736865640000000060448201526064016104ac565b60078101805461ff00191661010017905560068101546005820154606091101561075d57506040805180820190915260088152674f7074696f6e204160c01b60208201526107ae565b816005015482600601541115610792575060408051808201909152600881526727b83a34b7b7102160c11b60208201526107ae565b5060408051808201909152600381526254696560e81b60208201525b7fd55108dbacbe794e21abc5b4434e49f44c6824e10f71c59a956f6e09ff1c643e8382604051610639929190610af5565b8280546107eb90610aba565b90600052602060002090601f01602090048101928261080d5760008555610853565b82601f1061082657805160ff1916838001178555610853565b82800160010185558215610853579182015b82811115610853578251825591602001919060010190610838565b5061085f929150610863565b5090565b5b8082111561085f5760008155600101610864565b60006020828403121561088a57600080fd5b5035919050565b6000815180845260005b818110156108b75760208185018101518683018201520161089b565b818111156108c9576000602083870101525b50601f01601f19169290920160200192915050565b60006101208b83528060208401526108f88184018c610891565b9050828103604084015261090c818b610891565b60608401999099525050608081019590955260a085019390935260c0840191909152151560e08301521515610100909101529392505050565b6000806040838503121561095857600080fd5b8235915060208301356001600160a01b038116811461097657600080fd5b809150509250929050565b634e487b7160e01b600052604160045260246000fd5b600082601f8301126109a857600080fd5b813567ffffffffffffffff808211156109c3576109c3610981565b604051601f8301601f19908116603f011681019082821181831017156109eb576109eb610981565b81604052838152866020858801011115610a0457600080fd5b836020870160208301376000602085830101528094505050505092915050565b60008060008060808587031215610a3a57600080fd5b843567ffffffffffffffff80821115610a5257600080fd5b610a5e88838901610997565b95506020870135915080821115610a7457600080fd5b50610a8187828801610997565b949794965050505060408301359260600135919050565b60008060408385031215610aab57600080fd5b50508035926020909101359150565b600181811c90821680610ace57607f821691505b60208210811415610aef57634e487b7160e01b600052602260045260246000fd5b50919050565b828152604060208201526000610b0e6040830184610891565b949350505050565b634e487b7160e01b600052603260045260246000fd5b6000600019821415610b4e57634e487b7160e01b600052601160045260246000fd5b506001019056fea26469706673582212201430bd59cbc26660ee41f61113ce29bcbbefcf324a5d4c697b213f039219a02b64736f6c63430008090033",
  "linkReferences": {},
  "deployedLinkReferences": {}
}