{
  "_format": "hh-sol-artifact-1",
  "contractName": "DAO",
  "sourceName": "contracts/DAO.sol",
  "abi": [
    {
      "anonymous": false,
      "inputs": [
        {
          "indexed": false,
          "internalType": "uint256",
          "name": "proposalId",
          "type": "uint256"
        }
      ],
      "name": "ProposalClosed",
      "type": "event"
    },
    {
      "anonymous": false,
      "inputs": [
        {
          "indexed": false,
          "internalType": "uint256",
          "name": "id",
          "type": "uint256"
        },
        {
          "indexed": false,
          "internalType": "string",
          "name": "title",
          "type": "string"
        }
      ],
      "name": "ProposalCreated",
      "type": "event"
    },
    {
      "anonymous": false,
      "inputs": [
        {
          "indexed": false,
          "internalType": "uint256",
          "name": "proposalId",
          "type": "uint256"
        },
        {
          "indexed": false,
          "internalType": "string",
          "name": "winningOption",
          "type": "string"
        }
      ],
      "name": "ProposalFinished",
      "type": "event"
    },
    {
      "anonymous": false,
      "inputs": [
        {
          "indexed": false,
          "internalType": "uint256",
          "name": "proposalId",
          "type": "uint256"
        },
        {
          "indexed": false,
          "internalType": "address",
          "name": "voter",
          "type": "address"
        },
        {
          "indexed": false,
          "internalType": "uint256",
          "name": "voteOption",
          "type": "uint256"
        }
      ],
      "name": "VoteSubmitted",
      "type": "event"
    },
    {
      "inputs": [
        {
          "internalType": "string",
          "name": "title",
          "type": "string"
        },
        {
          "internalType": "string",
          "name": "description",
          "type": "string"
        },
        {
          "internalType": "uint256",
          "name": "deadline",
          "type": "uint256"
        },
        {
          "internalType": "uint256",
          "name": "minimumVotes",
          "type": "uint256"
        }
      ],
      "name": "createProposal",
      "outputs": [],
      "stateMutability": "nonpayable",
      "type": "function"
    },
    {
      "inputs": [],
      "name": "daoToken",
      "outputs": [
        {
          "internalType": "contract DAOtoken",
          "name": "",
          "type": "address"
        }
      ],
      "stateMutability": "view",
      "type": "function"
    },
    {
      "inputs": [
        {
          "internalType": "uint256",
          "name": "",
          "type": "uint256"
        },
        {
          "internalType": "address",
          "name": "",
          "type": "address"
        }
      ],
      "name": "hasVoted",
      "outputs": [
        {
          "internalType": "bool",
          "name": "",
          "type": "bool"
        }
      ],
      "stateMutability": "view",
      "type": "function"
    },
    {
      "inputs": [],
      "name": "joinDAO",
      "outputs": [],
      "stateMutability": "nonpayable",
      "type": "function"
    },
    {
      "inputs": [
        {
          "internalType": "address",
          "name": "",
          "type": "address"
        }
      ],
      "name": "memberBalances",
      "outputs": [
        {
          "internalType": "uint256",
          "name": "",
          "type": "uint256"
        }
      ],
      "stateMutability": "view",
      "type": "function"
    },
    {
      "inputs": [
        {
          "internalType": "uint256",
          "name": "",
          "type": "uint256"
        }
      ],
      "name": "proposals",
      "outputs": [
        {
          "internalType": "uint256",
          "name": "id",
          "type": "uint256"
        },
        {
          "internalType": "string",
          "name": "title",
          "type": "string"
        },
        {
          "internalType": "string",
          "name": "description",
          "type": "string"
        },
        {
          "internalType": "uint256",
          "name": "deadline",
          "type": "uint256"
        },
        {
          "internalType": "uint256",
          "name": "minimumVotes",
          "type": "uint256"
        },
        {
          "internalType": "uint256",
          "name": "votesForA",
          "type": "uint256"
        },
        {
          "internalType": "uint256",
          "name": "votesForB",
          "type": "uint256"
        },
        {
          "internalType": "bool",
          "name": "isClosed",
          "type": "bool"
        },
        {
          "internalType": "bool",
          "name": "finished",
          "type": "bool"
        }
      ],
      "stateMutability": "view",
      "type": "function"
    },
    {
      "inputs": [],
      "name": "proposalsCount",
      "outputs": [
        {
          "internalType": "uint256",
          "name": "",
          "type": "uint256"
        }
      ],
      "stateMutability": "view",
      "type": "function"
    },
    {
      "inputs": [],
      "name": "proposalsStatus",
      "outputs": [],
      "stateMutability": "nonpayable",
      "type": "function"
    },
    {
      "inputs": [
        {
          "internalType": "address",
          "name": "tokenAddress",
          "type": "address"
        }
      ],
      "name": "setDAOtoken",
      "outputs": [],
      "stateMutability": "nonpayable",
      "type": "function"
    },
    {
      "inputs": [
        {
          "internalType": "uint256",
          "name": "proposalId",
          "type": "uint256"
        },
        {
          "internalType": "uint256",
          "name": "voteOption",
          "type": "uint256"
        }
      ],
      "name": "vote",
      "outputs": [],
      "stateMutability": "nonpayable",
      "type": "function"
    }
  ],
  "bytecode": "0x608060405234801561001057600080fd5b50610f45806100206000396000f3fe608060405234801561001057600080fd5b506004361061009e5760003560e01c80636b5e1766116100665780636b5e1766146101645780638d51655514610177578063b384abef1461017f578063eca615ab14610192578063f63d13d7146101b257600080fd5b8063013cf08b146100a35780630a9f46ad146100d45780632cb4fdd5146100e657806343859632146100fb5780634914b03014610139575b600080fd5b6100b66100b1366004610be2565b6101ba565b6040516100cb99989796959493929190610c48565b60405180910390f35b6001545b6040519081526020016100cb565b6100f96100f4366004610ccb565b61032b565b005b610129610109366004610ced565b600360209081526000928352604080842090915290825290205460ff1681565b60405190151581526020016100cb565b60005461014c906001600160a01b031681565b6040516001600160a01b0390911681526020016100cb565b6100f9610172366004610dbc565b6103a2565b6100f9610514565b6100f961018d366004610e30565b6105d3565b6100d86101a0366004610ccb565b60026020526000908152604090205481565b6100f9610884565b600181815481106101ca57600080fd5b600091825260209091206008909102018054600182018054919350906101ef90610e52565b80601f016020809104026020016040519081016040528092919081815260200182805461021b90610e52565b80156102685780601f1061023d57610100808354040283529160200191610268565b820191906000526020600020905b81548152906001019060200180831161024b57829003601f168201915b50505050509080600201805461027d90610e52565b80601f01602080910402602001604051908101604052809291908181526020018280546102a990610e52565b80156102f65780601f106102cb576101008083540402835291602001916102f6565b820191906000526020600020905b8154815290600101906020018083116102d957829003601f168201915b505050600384015460048501546005860154600687015460079097015495969295919450925060ff8082169161010090041689565b6000546001600160a01b0316156103805760405162461bcd60e51b8152602060048201526014602482015273111053dd1bdad95b88185b1c9958591e481cd95d60621b60448201526064015b60405180910390fd5b600080546001600160a01b0319166001600160a01b0392909216919091179055565b60018054604080516101208101825282815260208082018981529282018890526060820187905260808201869052600060a0830181905260c0830181905260e0830181905261010083018190528486018655949094528051600884027fb10e2d527612073b26eecdfd717e6a320cf44b4afac2b0732d9fcbe2b7fa0cf6810191825592518051949592948594929361045e937fb10e2d527612073b26eecdfd717e6a320cf44b4afac2b0732d9fcbe2b7fa0cf701920190610b49565b506040820151805161047a916002840191602090910190610b49565b50606082015160038201556080820151600482015560a0820151600582015560c0820151600682015560e0820151600790910180546101009384015161ffff1990911692151561ff001916929092179115159092021790556040517f9c770c289ab5bf7e57cb1d23c8ceae993aea46eb64847072fd3d78ca60d3e432906105049084908990610e8d565b60405180910390a1505050505050565b60005b6001548110156105d05760006001828154811061053657610536610eae565b60009182526020909120600890910201600781015490915060ff16158015610562575080600301544210155b156105bd5760078101805460ff1916600117905580546040517f887777ccf43690541bed9e00b10d0fccfa7520b11875f09847a57b3085d8ab92916105aa9190815260200190565b60405180910390a180546105bd906109af565b50806105c881610ec4565b915050610517565b50565b336000908152600260205260409020546106275760405162461bcd60e51b81526020600482015260156024820152744f6e6c79206d656d626572732063616e20766f746560581b6044820152606401610377565b60006001838154811061063c5761063c610eae565b90600052602060002090600802019050806003015442106106a95760078101805460ff191660011790556040517f887777ccf43690541bed9e00b10d0fccfa7520b11875f09847a57b3085d8ab92906106989085815260200190565b60405180910390a16106a9836109af565b600781015460ff16156106f35760405162461bcd60e51b8152602060048201526012602482015271141c9bdc1bdcd85b081a5cc818db1bdcd95960721b6044820152606401610377565b6007810154610100900460ff16156107445760405162461bcd60e51b8152602060048201526014602482015273141c9bdc1bdcd85b081a5cc8199a5b9a5cda195960621b6044820152606401610377565b600083815260036020908152604080832033845290915290205460ff161561079e5760405162461bcd60e51b815260206004820152600d60248201526c105b1c9958591e481d9bdd1959609a1b6044820152606401610377565b816107bf576005810180549060006107b583610ec4565b9190505550610818565b81600114156107da576006810180549060006107b583610ec4565b60405162461bcd60e51b815260206004820152601360248201527224b73b30b634b2103b37ba329037b83a34b7b760691b6044820152606401610377565b60008381526003602090815260408083203380855290835292819020805460ff191660011790558051868152918201929092529081018390527fa5876137634fc61be6a6224d5f4a2d0926145388c51a133c03cc00f7b66e0e3c906060015b60405180910390a1505050565b33600090815260026020526040902054156108d45760405162461bcd60e51b815260206004820152601060248201526f20b63932b0b23c90309036b2b6b132b960811b6044820152606401610377565b6000546040516333f7586560e21b8152336004820152606460248201819052916001600160a01b03169063cfdd619490604401602060405180830381600087803b15801561092157600080fd5b505af1158015610935573d6000803e3d6000fd5b505050506040513d601f19601f820116820180604052508101906109599190610eed565b61099d5760405162461bcd60e51b8152602060048201526015602482015274151bdad95b881d1c985b9cd9995c8819985a5b1959605a1b6044820152606401610377565b33600090815260026020526040902055565b6000600182815481106109c4576109c4610eae565b60009182526020909120600890910201600781015490915060ff16610a245760405162461bcd60e51b8152602060048201526016602482015275141c9bdc1bdcd85b081a5cc81b9bdd0818db1bdcd95960521b6044820152606401610377565b6007810154610100900460ff1615610a7e5760405162461bcd60e51b815260206004820152601c60248201527f50726f706f73616c20697320616c72656164792066696e6973686564000000006044820152606401610377565b60078101805461ff001916610100179055600681015460058201546060911015610ac757506040805180820190915260088152674f7074696f6e204160c01b6020820152610b18565b816005015482600601541115610afc575060408051808201909152600881526727b83a34b7b7102160c11b6020820152610b18565b5060408051808201909152600381526254696560e81b60208201525b7fd55108dbacbe794e21abc5b4434e49f44c6824e10f71c59a956f6e09ff1c643e8382604051610877929190610e8d565b828054610b5590610e52565b90600052602060002090601f016020900481019282610b775760008555610bbd565b82601f10610b9057805160ff1916838001178555610bbd565b82800160010185558215610bbd579182015b82811115610bbd578251825591602001919060010190610ba2565b50610bc9929150610bcd565b5090565b5b80821115610bc95760008155600101610bce565b600060208284031215610bf457600080fd5b5035919050565b6000815180845260005b81811015610c2157602081850181015186830182015201610c05565b81811115610c33576000602083870101525b50601f01601f19169290920160200192915050565b60006101208b8352806020840152610c628184018c610bfb565b90508281036040840152610c76818b610bfb565b60608401999099525050608081019590955260a085019390935260c0840191909152151560e08301521515610100909101529392505050565b80356001600160a01b0381168114610cc657600080fd5b919050565b600060208284031215610cdd57600080fd5b610ce682610caf565b9392505050565b60008060408385031215610d0057600080fd5b82359150610d1060208401610caf565b90509250929050565b634e487b7160e01b600052604160045260246000fd5b600082601f830112610d4057600080fd5b813567ffffffffffffffff80821115610d5b57610d5b610d19565b604051601f8301601f19908116603f01168101908282118183101715610d8357610d83610d19565b81604052838152866020858801011115610d9c57600080fd5b836020870160208301376000602085830101528094505050505092915050565b60008060008060808587031215610dd257600080fd5b843567ffffffffffffffff80821115610dea57600080fd5b610df688838901610d2f565b95506020870135915080821115610e0c57600080fd5b50610e1987828801610d2f565b949794965050505060408301359260600135919050565b60008060408385031215610e4357600080fd5b50508035926020909101359150565b600181811c90821680610e6657607f821691505b60208210811415610e8757634e487b7160e01b600052602260045260246000fd5b50919050565b828152604060208201526000610ea66040830184610bfb565b949350505050565b634e487b7160e01b600052603260045260246000fd5b6000600019821415610ee657634e487b7160e01b600052601160045260246000fd5b5060010190565b600060208284031215610eff57600080fd5b81518015158114610ce657600080fdfea2646970667358221220289114ad4d198dba7cfa08aa285fa807795cea3db35101cc93521bf0be7b9bfc64736f6c63430008090033",
  "linkReferences": {},
  "deployedLinkReferences": {}
}