{
  "_format": "hh-sol-artifact-1",
  "contractName": "DAO",
  "sourceName": "contracts/DAO.sol",
  "abi": [
    {
      "inputs": [
        {
          "internalType": "address",
          "name": "tokenAddress",
          "type": "address"
        }
      ],
      "stateMutability": "nonpayable",
      "type": "constructor"
    },
    {
      "anonymous": false,
      "inputs": [
        {
          "indexed": false,
          "internalType": "uint256",
          "name": "proposalId",
          "type": "uint256"
        }
      ],
      "name": "ProposalClosed",
      "type": "event"
    },
    {
      "anonymous": false,
      "inputs": [
        {
          "indexed": false,
          "internalType": "uint256",
          "name": "id",
          "type": "uint256"
        },
        {
          "indexed": false,
          "internalType": "string",
          "name": "title",
          "type": "string"
        }
      ],
      "name": "ProposalCreated",
      "type": "event"
    },
    {
      "anonymous": false,
      "inputs": [
        {
          "indexed": false,
          "internalType": "uint256",
          "name": "proposalId",
          "type": "uint256"
        },
        {
          "indexed": false,
          "internalType": "string",
          "name": "winningOption",
          "type": "string"
        }
      ],
      "name": "ProposalFinished",
      "type": "event"
    },
    {
      "anonymous": false,
      "inputs": [
        {
          "indexed": false,
          "internalType": "uint256",
          "name": "proposalId",
          "type": "uint256"
        },
        {
          "indexed": false,
          "internalType": "address",
          "name": "voter",
          "type": "address"
        },
        {
          "indexed": false,
          "internalType": "uint256",
          "name": "voteOption",
          "type": "uint256"
        }
      ],
      "name": "VoteSubmitted",
      "type": "event"
    },
    {
      "inputs": [
        {
          "internalType": "string",
          "name": "title",
          "type": "string"
        },
        {
          "internalType": "string",
          "name": "description",
          "type": "string"
        },
        {
          "internalType": "uint256",
          "name": "deadline",
          "type": "uint256"
        },
        {
          "internalType": "uint256",
          "name": "minimumVotes",
          "type": "uint256"
        }
      ],
      "name": "createProposal",
      "outputs": [],
      "stateMutability": "nonpayable",
      "type": "function"
    },
    {
      "inputs": [],
      "name": "daoToken",
      "outputs": [
        {
          "internalType": "contract DAOtoken",
          "name": "",
          "type": "address"
        }
      ],
      "stateMutability": "view",
      "type": "function"
    },
    {
      "inputs": [
        {
          "internalType": "uint256",
          "name": "",
          "type": "uint256"
        },
        {
          "internalType": "address",
          "name": "",
          "type": "address"
        }
      ],
      "name": "hasVoted",
      "outputs": [
        {
          "internalType": "bool",
          "name": "",
          "type": "bool"
        }
      ],
      "stateMutability": "view",
      "type": "function"
    },
    {
      "inputs": [
        {
          "internalType": "uint256",
          "name": "",
          "type": "uint256"
        }
      ],
      "name": "proposals",
      "outputs": [
        {
          "internalType": "uint256",
          "name": "id",
          "type": "uint256"
        },
        {
          "internalType": "string",
          "name": "title",
          "type": "string"
        },
        {
          "internalType": "string",
          "name": "description",
          "type": "string"
        },
        {
          "internalType": "uint256",
          "name": "deadline",
          "type": "uint256"
        },
        {
          "internalType": "uint256",
          "name": "minimumVotes",
          "type": "uint256"
        },
        {
          "internalType": "uint256",
          "name": "votesForA",
          "type": "uint256"
        },
        {
          "internalType": "uint256",
          "name": "votesForB",
          "type": "uint256"
        },
        {
          "internalType": "bool",
          "name": "isClosed",
          "type": "bool"
        },
        {
          "internalType": "bool",
          "name": "finished",
          "type": "bool"
        }
      ],
      "stateMutability": "view",
      "type": "function"
    },
    {
      "inputs": [],
      "name": "proposalsCount",
      "outputs": [
        {
          "internalType": "uint256",
          "name": "",
          "type": "uint256"
        }
      ],
      "stateMutability": "view",
      "type": "function"
    },
    {
      "inputs": [],
      "name": "proposalsStatus",
      "outputs": [],
      "stateMutability": "nonpayable",
      "type": "function"
    },
    {
      "inputs": [
        {
          "internalType": "uint256",
          "name": "proposalId",
          "type": "uint256"
        },
        {
          "internalType": "uint256",
          "name": "voteOption",
          "type": "uint256"
        }
      ],
      "name": "vote",
      "outputs": [],
      "stateMutability": "nonpayable",
      "type": "function"
    }
  ],
  "bytecode": "0x608060405234801561001057600080fd5b50604051610d3a380380610d3a83398101604081905261002f91610054565b600080546001600160a01b0319166001600160a01b0392909216919091179055610084565b60006020828403121561006657600080fd5b81516001600160a01b038116811461007d57600080fd5b9392505050565b610ca7806100936000396000f3fe608060405234801561001057600080fd5b506004361061007d5760003560e01c80634914b0301161005b5780634914b030146101025780636b5e17661461012d5780638d51655514610142578063b384abef1461014a57600080fd5b8063013cf08b146100825780630a9f46ad146100b357806343859632146100c4575b600080fd5b610095610090366004610994565b61015d565b6040516100aa999897969594939291906109fa565b60405180910390f35b6001546040519081526020016100aa565b6100f26100d2366004610a61565b600260209081526000928352604080842090915290825290205460ff1681565b60405190151581526020016100aa565b600054610115906001600160a01b031681565b6040516001600160a01b0390911681526020016100aa565b61014061013b366004610b40565b6102ce565b005b610140610440565b610140610158366004610bb4565b6104ff565b6001818154811061016d57600080fd5b6000918252602090912060089091020180546001820180549193509061019290610bd6565b80601f01602080910402602001604051908101604052809291908181526020018280546101be90610bd6565b801561020b5780601f106101e05761010080835404028352916020019161020b565b820191906000526020600020905b8154815290600101906020018083116101ee57829003601f168201915b50505050509080600201805461022090610bd6565b80601f016020809104026020016040519081016040528092919081815260200182805461024c90610bd6565b80156102995780601f1061026e57610100808354040283529160200191610299565b820191906000526020600020905b81548152906001019060200180831161027c57829003601f168201915b505050600384015460048501546005860154600687015460079097015495969295919450925060ff8082169161010090041689565b60018054604080516101208101825282815260208082018981529282018890526060820187905260808201869052600060a0830181905260c0830181905260e0830181905261010083018190528486018655949094528051600884027fb10e2d527612073b26eecdfd717e6a320cf44b4afac2b0732d9fcbe2b7fa0cf6810191825592518051949592948594929361038a937fb10e2d527612073b26eecdfd717e6a320cf44b4afac2b0732d9fcbe2b7fa0cf7019201906108fb565b50604082015180516103a69160028401916020909101906108fb565b50606082015160038201556080820151600482015560a0820151600582015560c0820151600682015560e0820151600790910180546101009384015161ffff1990911692151561ff001916929092179115159092021790556040517f9c770c289ab5bf7e57cb1d23c8ceae993aea46eb64847072fd3d78ca60d3e432906104309084908990610c11565b60405180910390a1505050505050565b60005b6001548110156104fc5760006001828154811061046257610462610c32565b60009182526020909120600890910201600781015490915060ff1615801561048e575080600301544210155b156104e95760078101805460ff1916600117905580546040517f887777ccf43690541bed9e00b10d0fccfa7520b11875f09847a57b3085d8ab92916104d69190815260200190565b60405180910390a180546104e990610761565b50806104f481610c48565b915050610443565b50565b60006001838154811061051457610514610c32565b90600052602060002090600802019050806003015442106105815760078101805460ff191660011790556040517f887777ccf43690541bed9e00b10d0fccfa7520b11875f09847a57b3085d8ab92906105709085815260200190565b60405180910390a161058183610761565b600781015460ff16156105d05760405162461bcd60e51b8152602060048201526012602482015271141c9bdc1bdcd85b081a5cc818db1bdcd95960721b60448201526064015b60405180910390fd5b6007810154610100900460ff16156106215760405162461bcd60e51b8152602060048201526014602482015273141c9bdc1bdcd85b081a5cc8199a5b9a5cda195960621b60448201526064016105c7565b600083815260026020908152604080832033845290915290205460ff161561067b5760405162461bcd60e51b815260206004820152600d60248201526c105b1c9958591e481d9bdd1959609a1b60448201526064016105c7565b8161069c5760058101805490600061069283610c48565b91905055506106f5565b81600114156106b75760068101805490600061069283610c48565b60405162461bcd60e51b815260206004820152601360248201527224b73b30b634b2103b37ba329037b83a34b7b760691b60448201526064016105c7565b60008381526002602090815260408083203380855290835292819020805460ff191660011790558051868152918201929092529081018390527fa5876137634fc61be6a6224d5f4a2d0926145388c51a133c03cc00f7b66e0e3c906060015b60405180910390a1505050565b60006001828154811061077657610776610c32565b60009182526020909120600890910201600781015490915060ff166107d65760405162461bcd60e51b8152602060048201526016602482015275141c9bdc1bdcd85b081a5cc81b9bdd0818db1bdcd95960521b60448201526064016105c7565b6007810154610100900460ff16156108305760405162461bcd60e51b815260206004820152601c60248201527f50726f706f73616c20697320616c72656164792066696e69736865640000000060448201526064016105c7565b60078101805461ff00191661010017905560068101546005820154606091101561087957506040805180820190915260088152674f7074696f6e204160c01b60208201526108ca565b8160050154826006015411156108ae575060408051808201909152600881526727b83a34b7b7102160c11b60208201526108ca565b5060408051808201909152600381526254696560e81b60208201525b7fd55108dbacbe794e21abc5b4434e49f44c6824e10f71c59a956f6e09ff1c643e8382604051610754929190610c11565b82805461090790610bd6565b90600052602060002090601f016020900481019282610929576000855561096f565b82601f1061094257805160ff191683800117855561096f565b8280016001018555821561096f579182015b8281111561096f578251825591602001919060010190610954565b5061097b92915061097f565b5090565b5b8082111561097b5760008155600101610980565b6000602082840312156109a657600080fd5b5035919050565b6000815180845260005b818110156109d3576020818501810151868301820152016109b7565b818111156109e5576000602083870101525b50601f01601f19169290920160200192915050565b60006101208b8352806020840152610a148184018c6109ad565b90508281036040840152610a28818b6109ad565b60608401999099525050608081019590955260a085019390935260c0840191909152151560e08301521515610100909101529392505050565b60008060408385031215610a7457600080fd5b8235915060208301356001600160a01b0381168114610a9257600080fd5b809150509250929050565b634e487b7160e01b600052604160045260246000fd5b600082601f830112610ac457600080fd5b813567ffffffffffffffff80821115610adf57610adf610a9d565b604051601f8301601f19908116603f01168101908282118183101715610b0757610b07610a9d565b81604052838152866020858801011115610b2057600080fd5b836020870160208301376000602085830101528094505050505092915050565b60008060008060808587031215610b5657600080fd5b843567ffffffffffffffff80821115610b6e57600080fd5b610b7a88838901610ab3565b95506020870135915080821115610b9057600080fd5b50610b9d87828801610ab3565b949794965050505060408301359260600135919050565b60008060408385031215610bc757600080fd5b50508035926020909101359150565b600181811c90821680610bea57607f821691505b60208210811415610c0b57634e487b7160e01b600052602260045260246000fd5b50919050565b828152604060208201526000610c2a60408301846109ad565b949350505050565b634e487b7160e01b600052603260045260246000fd5b6000600019821415610c6a57634e487b7160e01b600052601160045260246000fd5b506001019056fea26469706673582212204203ab7415387e94ddd53727a10a1b4eee2932e2eb3c9824940e1ea782378fb864736f6c63430008090033",
  "linkReferences": {},
  "deployedLinkReferences": {}
}