{
  "_format": "hh-sol-artifact-1",
  "contractName": "DAO",
  "sourceName": "contracts/DAO.sol",
  "abi": [
    {
      "anonymous": false,
      "inputs": [
        {
          "indexed": false,
          "internalType": "uint256",
          "name": "id",
          "type": "uint256"
        },
        {
          "indexed": false,
          "internalType": "string",
          "name": "title",
          "type": "string"
        }
      ],
      "name": "ProposalCreated",
      "type": "event"
    },
    {
      "anonymous": false,
      "inputs": [
        {
          "indexed": false,
          "internalType": "uint256",
          "name": "proposalId",
          "type": "uint256"
        },
        {
          "indexed": false,
          "internalType": "address",
          "name": "voter",
          "type": "address"
        },
        {
          "indexed": false,
          "internalType": "uint256",
          "name": "voteOption",
          "type": "uint256"
        }
      ],
      "name": "VoteSubmitted",
      "type": "event"
    },
    {
      "inputs": [
        {
          "internalType": "string",
          "name": "title",
          "type": "string"
        },
        {
          "internalType": "string",
          "name": "description",
          "type": "string"
        },
        {
          "internalType": "uint256",
          "name": "deadline",
          "type": "uint256"
        },
        {
          "internalType": "uint256",
          "name": "minimumVotes",
          "type": "uint256"
        }
      ],
      "name": "createProposal",
      "outputs": [],
      "stateMutability": "nonpayable",
      "type": "function"
    },
    {
      "inputs": [
        {
          "internalType": "uint256",
          "name": "",
          "type": "uint256"
        },
        {
          "internalType": "address",
          "name": "",
          "type": "address"
        }
      ],
      "name": "hasVoted",
      "outputs": [
        {
          "internalType": "bool",
          "name": "",
          "type": "bool"
        }
      ],
      "stateMutability": "view",
      "type": "function"
    },
    {
      "inputs": [
        {
          "internalType": "uint256",
          "name": "",
          "type": "uint256"
        }
      ],
      "name": "proposals",
      "outputs": [
        {
          "internalType": "uint256",
          "name": "id",
          "type": "uint256"
        },
        {
          "internalType": "string",
          "name": "title",
          "type": "string"
        },
        {
          "internalType": "string",
          "name": "description",
          "type": "string"
        },
        {
          "internalType": "uint256",
          "name": "deadline",
          "type": "uint256"
        },
        {
          "internalType": "uint256",
          "name": "minimumVotes",
          "type": "uint256"
        },
        {
          "internalType": "uint256",
          "name": "votesForA",
          "type": "uint256"
        },
        {
          "internalType": "uint256",
          "name": "votesForB",
          "type": "uint256"
        },
        {
          "internalType": "bool",
          "name": "closed",
          "type": "bool"
        },
        {
          "internalType": "bool",
          "name": "finished",
          "type": "bool"
        }
      ],
      "stateMutability": "view",
      "type": "function"
    },
    {
      "inputs": [],
      "name": "proposalsCount",
      "outputs": [
        {
          "internalType": "uint256",
          "name": "",
          "type": "uint256"
        }
      ],
      "stateMutability": "view",
      "type": "function"
    },
    {
      "inputs": [
        {
          "internalType": "uint256",
          "name": "proposalId",
          "type": "uint256"
        },
        {
          "internalType": "uint256",
          "name": "voteOption",
          "type": "uint256"
        }
      ],
      "name": "vote",
      "outputs": [],
      "stateMutability": "nonpayable",
      "type": "function"
    }
  ],
  "bytecode": "0x608060405234801561001057600080fd5b50610997806100206000396000f3fe608060405234801561001057600080fd5b50600436106100575760003560e01c8063013cf08b1461005c5780630a9f46ad1461008d578063438596321461009e5780636b5e1766146100dc578063b384abef146100f1575b600080fd5b61006f61006a366004610684565b610104565b604051610084999897969594939291906106ea565b60405180910390f35b600054604051908152602001610084565b6100cc6100ac366004610751565b600160209081526000928352604080842090915290825290205460ff1681565b6040519015158152602001610084565b6100ef6100ea366004610830565b610275565b005b6100ef6100ff3660046108a4565b6103e5565b6000818154811061011457600080fd5b60009182526020909120600890910201805460018201805491935090610139906108c6565b80601f0160208091040260200160405190810160405280929190818152602001828054610165906108c6565b80156101b25780601f10610187576101008083540402835291602001916101b2565b820191906000526020600020905b81548152906001019060200180831161019557829003601f168201915b5050505050908060020180546101c7906108c6565b80601f01602080910402602001604051908101604052809291908181526020018280546101f3906108c6565b80156102405780601f1061021557610100808354040283529160200191610240565b820191906000526020600020905b81548152906001019060200180831161022357829003601f168201915b505050600384015460048501546005860154600687015460079097015495969295919450925060ff8082169161010090041689565b6000805460408051610120810182528281526020808201898152928201889052606082018790526080820186905260a0820185905260c0820185905260e0820185905261010082018590526001840185559380528051600884027f290decd9548b62a8d60345a988386fc84ba6bc95484008f6362f93160ef3e563810191825592518051949592948594929361032f937f290decd9548b62a8d60345a988386fc84ba6bc95484008f6362f93160ef3e564019201906105eb565b506040820151805161034b9160028401916020909101906105eb565b50606082015160038201556080820151600482015560a0820151600582015560c0820151600682015560e0820151600790910180546101009384015161ffff1990911692151561ff001916929092179115159092021790556040517f9c770c289ab5bf7e57cb1d23c8ceae993aea46eb64847072fd3d78ca60d3e432906103d59084908990610901565b60405180910390a1505050505050565b60008083815481106103f9576103f9610922565b60009182526020909120600890910201600781015490915060ff161561045b5760405162461bcd60e51b8152602060048201526012602482015271141c9bdc1bdcd85b081a5cc818db1bdcd95960721b60448201526064015b60405180910390fd5b6007810154610100900460ff16156104ac5760405162461bcd60e51b8152602060048201526014602482015273141c9bdc1bdcd85b081a5cc8199a5b9a5cda195960621b6044820152606401610452565b600083815260016020908152604080832033845290915290205460ff16156105065760405162461bcd60e51b815260206004820152600d60248201526c105b1c9958591e481d9bdd1959609a1b6044820152606401610452565b816105275760058101805490600061051d83610938565b9190505550610580565b81600114156105425760068101805490600061051d83610938565b60405162461bcd60e51b815260206004820152601360248201527224b73b30b634b2103b37ba329037b83a34b7b760691b6044820152606401610452565b60008381526001602081815260408084203380865290835293819020805460ff191690931790925581518681529081019290925281018390527fa5876137634fc61be6a6224d5f4a2d0926145388c51a133c03cc00f7b66e0e3c9060600160405180910390a1505050565b8280546105f7906108c6565b90600052602060002090601f016020900481019282610619576000855561065f565b82601f1061063257805160ff191683800117855561065f565b8280016001018555821561065f579182015b8281111561065f578251825591602001919060010190610644565b5061066b92915061066f565b5090565b5b8082111561066b5760008155600101610670565b60006020828403121561069657600080fd5b5035919050565b6000815180845260005b818110156106c3576020818501810151868301820152016106a7565b818111156106d5576000602083870101525b50601f01601f19169290920160200192915050565b60006101208b83528060208401526107048184018c61069d565b90508281036040840152610718818b61069d565b60608401999099525050608081019590955260a085019390935260c0840191909152151560e08301521515610100909101529392505050565b6000806040838503121561076457600080fd5b8235915060208301356001600160a01b038116811461078257600080fd5b809150509250929050565b634e487b7160e01b600052604160045260246000fd5b600082601f8301126107b457600080fd5b813567ffffffffffffffff808211156107cf576107cf61078d565b604051601f8301601f19908116603f011681019082821181831017156107f7576107f761078d565b8160405283815286602085880101111561081057600080fd5b836020870160208301376000602085830101528094505050505092915050565b6000806000806080858703121561084657600080fd5b843567ffffffffffffffff8082111561085e57600080fd5b61086a888389016107a3565b9550602087013591508082111561088057600080fd5b5061088d878288016107a3565b949794965050505060408301359260600135919050565b600080604083850312156108b757600080fd5b50508035926020909101359150565b600181811c908216806108da57607f821691505b602082108114156108fb57634e487b7160e01b600052602260045260246000fd5b50919050565b82815260406020820152600061091a604083018461069d565b949350505050565b634e487b7160e01b600052603260045260246000fd5b600060001982141561095a57634e487b7160e01b600052601160045260246000fd5b506001019056fea26469706673582212201eb37510584472e939ec43e3830d0c70d498f3363ce041c17160402590997f8b64736f6c63430008090033",
  "linkReferences": {},
  "deployedLinkReferences": {}
}